S00F000053414D436F72652E73726563AB
S113000000800020650100004D0100004D0100004A
S113001000000000000000000000000000000000DC
S11300200000000000000000000000004D0100007E
S113003000000000000000004D010000B9010000B4
S11300404D0100004D0100004D0100004D01000074
S11300504D0100004D0100004D0100005101000060
S11300604D010000B50E00004D0100004D010000DF
S1130070DD0E00004D0100004D0100004D010000A7
S11300804D0100004D0100004D0100004D01000034
S1130090000000004D0100004D0100004D01000072
S11300A04D01000010B5064C2378002B07D1054BF9
S11300B0002B02D0044800E000BF0123237010BDD0
S11300C02000002000000000AC170000084B10B511
S11300D0002B03D00749084800E000BF0748036825
S11300E0002B00D110BD064B002BFBD09847F9E73D
S11300F00000000024000020AC1700001C000020B9
S11301000000000010B500F05FF80A220100044866
S113011000F0E1F8FA20400000F05CF810BDC046A1
S113012090020020962110B58901054800F0CCF911
S1130130044800F03BFD044800F0D8FD10BDC04663
S113014090020020440000205C00002003BEFEE773
S1130150034B10B51B68002B00D0984710BDC04658
S11301603C00002070B50F490F4CA14204D100F0AF
S1130170FBF800F04BF8FEE70C4D00238D42F6D05F
S1130180CA18E818A24205D39042F0D0084B094996
S1130190002204E0006804331060F1E704C38B42DA
S11301A0FCD3E4E70000002020000020B01700008A
S11301B0200000205C03002010B500F024F8002883
S11301C001D100F015F810BD014B18687047C04606
S11301D04000002070B5041E07D0044D2E6800F0C6
S11301E011F82B689B1B9C42F9D870BD400000207D
S11301F010B5034A13680133136000F079F810BD99
S113020040000020704700207047704710B500F090
S113021055FB01F027F9FFF7F8FF0120FFF7DAFF9C
S1130220FFF780FFFFF76EFF024B002BFAD000E0D0
S113023000BFF7E70000000000207047F7B5060094
S11302400D000C008B180193019B671B9C4207D087
S1130250336821781B683000984701340028F3D1B3
S11302603800FEBD70B505000C00081E07D001F073
S113027025F92B6802005B6821002800984770BDAF
S1130280F0B5160000228DB002AB053301900D00CD
S1130290DA77012E00DC0A260BAC2800310001F0CD
S11302A0DBF80F00CBB228003100009301F04EF8C8
S11302B0FBB237330500013CDBB2092F02D8009BA7
S11302C03033DBB22370002DE7D121000198FFF712
S11302D0C9FF0DB0F0BD10B5002A04D10368C9B23E
S11302E01B68984710BDD2B2FFF7CAFFFAE70000B7
S11302F0164A10B51368591C27D0013B1360002B14
S113030023D172B6124B134A0433934208D8BFF375
S11303104F8F114A114BDA60BFF34F8FC046FDE790
S11303200F4A01211000147D0C42FCD02021148BB3
S1130330FF319B085B0021431183D361094B138078
S11303400123027D1A42FCD0E1E710BD0000002029
S113035000000000030200000400FA0500ED00E0C4
S11303600040004102A5FFFF1E2270B546484749E0
S1130370436893431C3A1343436008238C69234323
S11303808B61434C434B9C829C8A14439C82DC6863
S11303901442FCD00124404A14701578254203D03D
S11303A055786DB2002DF8DB01249460547864B262
S11303B0002CFBDB394C5460547864B2002CFBDB1A
S11303C08224E4015480547864B2002CFBDB0224C0
S11303D09C840E34DD682542FCD0314CDC62102450
S11303E0DD682542FCD081249D8CA4002C439C8490
S11303F01024DD682542FCD002249D8C80262C43E9
S11304009C844024DD683542FCD0DD682542F9D067
S11304101024DD682542FCD000249460547864B232
S1130420002CFBDB1F4C5460547864B2002CFBDBC3
S11304301C6A1D4D2C4080251C621C6AAC431C6246
S113044003239360194B536053785BB2002BFBDB9F
S11304500023FF240B72164A4B728B72CB72154B1E
S11304601A60154B154A1B6811689A065B01C90E80
S11304702340520F12020B431343114A1385802366
S113048042681343436070BD0040004100040040D3
S11304900C06000000080040000C004001050100AB
S11304A0B905FF7D00070300FFFCFFFF0306010001
S11304B0006CDC02040000202460800020608000C6
S11304C0004000420120704710B50368014A1B6ACE
S11304D0984710BD13040000826D436D9A4203D007
S11304E0836DC018007D704701204042FBE710B5C2
S11304F00400006900F055FD0023220063659C326E
S1130500A365A0341360236010BDF020014030398E
S1130510484248417047F0231B01194080230620BC
S11305209B0099420AD00133FF330130994205D030
S1130530802302385B00994200D0002070470F20CE
S113054001400020012903D00239481E8141481C82
S1130550704700000300F0B5182685B00391A4335A
S113056004001878330008214343334D1700EB1877
S1130570595600F099FA2300A5331878330008215E
S11305804343EB18595600F08FFA2300A7331B7826
S1130590022B0AD12300B8331878FF2805D008218C
S11305A04643AE19715600F07FFA2600A83630781B
S11305B0FF2819D0012100F02BFA182221003378EA
S11305C01E485A43AB56AC31DB01181808601C496D
S11305D0AD185B1821000122B0310B6069688A40B4
S11305E02100B4310A601A600122039B11002069C2
S11305F000F036FE39002000FFF78DFF39000500BA
S11306002000FFF79CFF390006002000FFF77DFF64
S11306103300009029002069012200F097FC230098
S1130620A6331A785978206900F0AAFC206900F0F2
S1130630C4FC05B0F0BDC0463C15000018440041A0
S11306401444004110B540220021040000F02EFFA4
S1130650002320002364636410BD0000F7B51D006F
S113066008AB1B780400009309AB1B7816000193B8
S113067000234360FA239B0083600E4B0F00083372
S113068003601430FFF7DEFF20005C30FFF7DAFF71
S11306906A4623001278A43327619A706A46127955
S11306A01E70DA7022005D70FF23A83220001370E0
S11306B01374FEBDE4140000036C406C181A00D5DA
S11306C04030704710B5040020005C30FFF7F4FFA1
S11306D00028F9D1206900F079FC10BD10B5143060
S11306E0FFF7EAFF10BD026C436C9A4204DB036C13
S11306F0406CC01A3F307047436C006C181A0138C4
S1130700F9E710B55C30FFF7EEFF10BD70B50400DB
S1130710006900F067FC00281FD0206900F08BFC02
S11307203F22636D01331340A26D934203D0626D87
S1130730A218107563652300A8331B78FF2B0CD017
S113074020001430FFF7CFFF092806DC2300220025
S1130750AC33B4321B6812681A60206900F066FC7E
S1130760002819D025005C352800FFF7A5FF0028D4
S113077021D022002300A0329C3311681B689942C7
S113078016D03F201368E95C1368013303401360FB
S1130790C9B2206900F053FC206900F028FC00284D
S11307A005D0206900F02BFC206900F017FC70BD17
S11307B001214942ECE7206900F04DFCECE7000020
S11307C0F8B5040000690D0000F030FC002826D1C3
S11307D03F260127220021009C321368A0310868BB
S11307E00133334083422ED1EFF310833B420DD1CA
S11307F01D4B5B68DB05DB0DECD0103B5BB2002BC3
S113080018DB9B08C033194A9B009B58206900F0F1
S11308100DFC0028DED02000FFF778FFDAE7200087
S11308205C30FFF749FF0028D2D12900206900F08D
S113083006FC16E00F221340083B9B080C4A9B0061
S11308409B181B68E2E7136801331E400B689E4245
S113085004D0210013685C31CD541660206900F087
S1130860F6FB0120F8BDC04600ED00E000E100E029
S11308701CED00E0826D436D70B504009A421AD0FD
S11308803F22836DC3181D7D836D0133134083653F
S11308902300A8331B78FF2B0BD020001430FFF764
S11308A022FF0A2805DD2300B434B0331B68226814
S11308B01A60280070BD01256D42E9E7FA21314B29
S11308C010B51868890000F041FD2F4B013898429B
S11308D056D82E492E4A4860C020136A00061B02CF
S11308E01B0A03431362002407238C600B608021DE
S11308F0136A09061B021B0A0B431362FC22254BD5
S1130900196A0A431A62FC22196A92010A431A629A
S1130910A022196AD2020A431A622000002101347B
S113092000F076F8102CF8D11B4B1C005A7852B208
S1130930002AFBDB194A5A80194B1A00597EC9094F
S11309400129FBD0E421C90099803F21D970537E4D
S1130950DB09012BFBD0C02300205B0113619070E5
S113096000F024F863785BB2002BFBDB0D4B0E4ADE
S11309706380D379DB09012BFBD04123537010BD75
S1130980FEE7C04604000020FFFFFF0010E000E087
S113099000ED00E000040040000C00401E40000098
S11309A0004000422140000000480042164A00B5C1
S11309B01300517EC9090129FBD00138042816D837
S11309C01969124A0A400F211A615A788A4300F0C1
S11309D0B3FC0308060B0300110001220A435A70FA
S11309E000BD11000322F9E711000222F6E7F0230B
S11309F011691B050B430F21136153788B431900B5
S1130A0002230B435370EBE700400042FFFFFFF06B
S1130A10182330B51D00040045430820204A551909
S1130A202856013014D0032912D808006343D15644
S1130A30D31800F081FC02280E1B5868CB01022158
S1130A40184A9B181A1840321170012282405A60C9
S1130A5030BD5868CB010621124A9B181A1840323F
S1130A601170012282405A609A61F1E75868CB0103
S1130A7006210C4A9B181A18403211700122824038
S1130A805A605A61E4E75868CB010221054A9B1871
S1130A901A1840321170012282409A60D8E7C04689
S1130AA03C15000000440041F8B5030018205843E9
S1130AB02A4A1018007A40B20400013013D0481CAE
S1130AC000240C280FD800F037FC451C1C1C1C1CEF
S1130AD01C1C1C0707070700092906D10021180060
S1130AE0FFF796FF00242000F8BD0A2901D1083938
S1130AF0F5E700240B29F6D10A391800FFF788FF1F
S1130B00F1E718204343D018466801253400D25633
S1130B101348D20112187308D31830332C401878B4
S1130B20002C0BD00F24090120400143C9B29219B3
S1130B301970403213781D431570D3E70F27B8435B
S1130B4001439219C9B21970130040331A7815433E
S1130B501D70C8E701246442C5E7C0463C15000087
S1130B6000440041437A002B04D18372C372C360F2
S1130B7001334372704730B5040085B002AD00689C
S1130B800291039200F097FA6B79227AE17900934B
S1130B902068002300F082FB2979029A206800F083
S1130BA05FFA206800F07EFA05B030BD70B51826F3
S1130BB00400FFF7D7FF3300082120790D4D43438C
S1130BC0EB185956FFF770FF33000821A07943430F
S1130BD0EB185956FFF768FF082160794643AD19B1
S1130BE06956FFF761FF044B200006CBFFF7C3FFF4
S1130BF070BDC0463C150000540000200A4B0B4A4F
S1130C001A6000225A711A71094B5A72094A1A6001
S1130C1008221A71023A9A71013A5A71043ADA7145
S1130C2002321A727047C0465400002000093D0089
S1130C304400002050030020F8B505000E00170002
S1130C400024BC4208D02B68315D1B6828009847FB
S1130C50002801D00134F4E72000F8BD70470300F8
S1130C60FC33196ADA69914203D01B6AC018007E0A
S1130C70704701204042FBE70300FC33D8691B6A3C
S1130C80C01A01D50130FF3070470000F7B5019359
S1130C90FA238026002504009B008360124B760013
S1130CA008330F00456029000092036032001830B9
S1130CB000F0FCFB23002000FC332130DD61320016
S1130CC01D622900FF3000F0F1FB87239B00E3182D
S1130CD05D609D606B461B78276123756B461B79AD
S1130CE0A57520006375FEBD1815000070B50600DB
S1130CF018250C49006900F0F5FA306900F0F0F9A4
S1130D002B000821307D084C4343E3185956FFF764
S1130D10CBFE0821707D454364196156FFF7C4FE7C
S1130D2070BDC046A08601003C1500000200FC32E4
S1130D30536810B501339468DBB29C4202D0546806
S1130D400155536010BD002210B5837D93420DD030
S1130D5087239B00C4186368A4680133DBB2A342F1
S1130D6004D02130FF30FFF7E1FF0122100010BD55
S1130D700300FC3399685A68914206D09A68805CF3
S1130D809A680132D2B29A60704701204042FBE770
S1130D9010B51830FFF7ECFF10BD70B50400006902
S1130DA000F0ECF9002828D0206900F0F5F90028BB
S1130DB00ED1206900F0FAF9002855D0206900F01E
S1130DC0F0F9002850D0206900F0F5F900284BD143
S1130DD0206900F0A1F90321206900F0A7F98C2310
S1130DE09B00E558002D04D0236820001B69984718
S1130DF0A8470023FC34E361236270BD206900F03E
S1130E008BF92069032100F091F9206900F0D3F9EE
S1130E100028F2D0872300229B00E3185A609A60CE
S1130E200123A3758B239B00E3589342E5D0984795
S1130E30E3E72200FC32D369126A0133DBB2206992
S1130E40934206D100F05FF90321206900F06EF9A6
S1130E50D3E700F0B5F9010020001830FFF766FF72
S1130E60206900F059F9EFE7206900F09FF90028A4
S1130E70C4D1206900F08BF90028BED0206900F0AD
S1130E809AF90028D5D087239B00E218536892680A
S1130E909B1A01D50133FF33FF21002B05D020001D
S1130EA02130FF30FFF764FFC1B2206900F05AF926
S1130EB0A075A2E710B50248FFF76FFF10BDC0464A
S1130EC05C00002010B50F230E2202490248FFF7F0
S1130ED0DDFE10BD4C0300205C00002010B502486C
S1130EE0FFF714FC10BDC0469002002013B50D4955
S1130EF00D4800F029F80D490D4800F025F80D497A
S1130F000D4800F021F80D4C0D49200000F01CF8AC
S1130F100123032201930092210000220948FFF7D4
S1130F209DFB13BD000800424C030020000C00424E
S1130F3050030020001000425403002058030020F6
S1130F40001400429002002001607047F0B505AC27
S1130F5025780468981E471EB84126689207000643
S1130F6032430243072022600140AD0162682943F5
S1130F700020022B00D05803114301436160F0BDEF
S1130F80C021120589030A408021036849021868B8
S1130F9001430A431A60C022596892020A435A6004
S1130FA070470122036819680A431A601A68D20755
S1130FB0FCD41A8AD20BF9D1704702230268116853
S1130FC00B431360138ADB0BFCD1704703689A7BD5
S1130FD0D20702D49A7B9207FCD57047002203689B
S1130FE01A8270470368987B4007C00F70470368F4
S1130FF0188A07231840431E9841C0B270470368FB
S11310001A8A520703D50422198A0A431A821A8AB1
S1131010920703D50222198A0A431A821A8AD2072E
S113102003D50122198A0A431A8270470368987B00
S1131030C007C00F70470368188BC0B270470368BD
S11310409A7BD207FCD589B201201983704701220B
S113105003685A737047012203681A7370470000CB
S113106070B5012504684B082B4029402068090706
S11310705B070B43034323605100034800F066F908
S11310800138C0B2A07270BD006CDC02012203689A
S113109019680A431A601A68D207FCD41A8AD20B58
S11310A0F9D170470223026811680B431360138A55
S11310B0DB0BFCD1704703681A8AD20BFCD10221E6
S11310C01A688A431A6070470122036819680A4340
S11310D01A601A68D207FCD41A8AD20BF9D1704765
S11310E00222036819680A431A601A8AD20BFCD1D7
S11310F030211A8A8A43110010220A431A821A8A5A
S1131100D20BFCD1704780230268DB02116851685E
S11311100B43536070470000036803491A685A6818
S11311200A405A607047C046FFFFFBFF036810B5D2
S113113018680322C006400F094C052809D15868D5
S1131140114009042040014359601A8AD20BFCD192
S113115010BD586811400904204001435960F7E765
S1131160FFFFFCFF0368002019769A7B520704D521
S1131170188A01234007C00F584070470368186855
S1131180C006400F043843425841C0B27047036858
S1131190987B4007C00F70470368987BC007C00F57
S11311A070470368188AC006C00F70470368987BAD
S11311B08007C00F70470368188A0007C00F704784
S11311C002681368DB065B0F052B02D1937B9B0738
S11311D0FCD5107EC0B2704703681B4A30B59342F9
S11311E00BD01A4A934229D0194A934229D0194A5A
S11311F0934222D10A23172001E00723142001225D
S113120003259A401449C0240A609A082B40AB4035
S1131210FC359D4092005218A4001159A943C025E1
S11312209D402B000B4313518023DB0118430B4BD0
S113123058805A7852B2002AFBDB30BD08231520AF
S1131240DDE709231620DAE700080042000C00421B
S1131250001000420014004200E100E0000C0040D5
S113126070B504000E001D00FFF7B6FF2000FFF765
S113127098FE1C222468B300134023600423637384
S1131280012E08D1044BE9001868C00000F05EF894
S1131290C00880B2608170BD04000020F7B507006B
S11312A0019308AB1E780D001400FFF7EFFE380021
S11312B0FFF792FFC022240592031440B2070C26C4
S11312C007211643019A34430A40C02611008022A4
S11312D0B6022D043B683540920225430A431D6043
S11312E05A60F7BD70B505000C00FFF775FF2800C4
S11312F0FFF7EAFE14232D6861002B600C4B1E6877
S1131300300000F023F80B490400300000F01EF810
S11313107D23FA215843C90000F018F8FF23241A4A
S11313206889053C1C40984304436C8170BDC046E9
S11313300400002040420F0002B4714649084900ED
S1131340095C49008E4402BC7047C0460022430831
S11313508B4274D303098B425FD3030A8B4244D379
S1131360030B8B4228D3030C8B420DD3FF220902BB
S113137012BA030C8B4202D31212090265D0030B7A
S11313808B4219D300E0090AC30B8B4201D3CB0370
S1131390C01A5241830B8B4201D38B03C01A5241B2
S11313A0430B8B4201D34B03C01A5241030B8B42B4
S11313B001D30B03C01A5241C30A8B4201D3CB029F
S11313C0C01A5241830A8B4201D38B02C01A524184
S11313D0430A8B4201D34B02C01A5241030A8B4287
S11313E001D30B02C01A5241CDD2C3098B4201D39F
S11313F0CB01C01A524183098B4201D38B01C01A1D
S1131400524143098B4201D34B01C01A5241030993
S11314108B4201D30B01C01A5241C3088B4201D342
S1131420CB00C01A524183088B4201D38B00C01AEF
S1131430524143088B4201D34B00C01A5241411A16
S113144000D20146524110467047FFE701B5002023
S113145000F006F802BDC0460029F7D076E77047D1
S11314607047C04670B500260C4D0D4C641BA4108B
S1131470A64209D1002600F029F80A4D0A4C641B43
S1131480A410A64205D170BDB300EB5898470136AD
S1131490EEE7B300EB5898470136F2E70800002066
S11314A00800002008000020180000200300821813
S11314B0934200D1704719700133F9E70023C25CED
S11314C00133002AFBD1581E70470000F8B5C0460E
S11314D0F8BC08BC9E467047F8B5C046F8BC08BCCA
S11314E09E4670470000000000000000C107000095
S11314F03D02000003070000C5060000DD060000F1
S113150075080000D9040000C90400005505000056
S1131510EF040000C504000000000000000000000B
S1131520470D0000390C0000390200005D0C00007A
S1131530790C0000910D00005F0C00000000000019
S1131540190000000200000004000000FF00FFFF7B
S1131550FFFF0D0000000000180000000200000062
S113156004000000FF00FFFFFFFF0C00000000006C
S11315700B000000040000001C000000FF0001013B
S113158001010B00000000000E0000000400000038
S11315901C000000FF00000300030E000000000018
S11315A00F000000040000001C000000FF00010305
S11315B001030F0000000000100000000400000000
S11315C01C000000FF0000020002000000000000F8
S11315D011000000040000001C000000FF000102D4
S11315E001020100000000001200000008000000D9
S11315F004000000FF00FFFFFFFF020000000000E6
S1131600130000000800000004000000FF00FFFFBA
S1131610FFFF0300000000001600000004000000AB
S11316201C000000FF00000400040600000000008D
S113163017000000040000001C000000FF0001046B
S113164001040700000000001B0000000800000067
S113165004000000FF00FFFFFFFF0F000000000078
S11316601C0000000800000004000000FF00FFFF51
S1131670FFFF08000000000002000000010000005D
S1131680060000000000FFFFFFFF02000000000052
S113169004000000010000001E000000040000001F
S11316A0000004000000000005000000010000002C
S11316B01E000000050001000100050000000000FC
S11316C006000000010000001E00000006000001EA
S11316D000010600000000000700000001000000F7
S11316E01E000000070001010101070000000000C6
S11316F00A00000001000000060000001200FFFFC5
S1131700FFFF0A00000000000800000002000000C3
S113171004000000FF00FFFFFFFF100000000000B6
S1131720090000000200000004000000FF00FFFFA9
S1131730FFFF090000000000130000000200000089
S113174004000000FF00FFFFFFFF03000000000093
S1131750100000000200000004000000FF00FFFF72
S1131760FFFF000000000000110000000200000064
S113177004000000FF00FFFFFFFF01000000000065
S1131780030000000100000002000000FF00FFFF52
S1131790FFFFFF0000000000020000000100000045
S11317A0020000001400FFFFFFFF02000000000021
S11317B0FFFFFFFF40420F00CD000000FD0B0000C3
S11317C0C50E0000ED0E0000A500000000000000A2
S903016596
